:100000000C9432000C94AE0A0C944F000C944F00E8
:100010000C944F000C944F000C944F000C944F0024
:100020000C944F000C944F000C94350B0C94FD0A6B
:100030000C944F000C944F000C944F000C944F0004
:100040000C944F000C944F000C944F000C944F00F4
:100050000C944F008B00A000B500CA00DF00F40034
:1000600009011E0111241FBECFE5D8E0DEBFCDBFC0
:1000700012E0A0E6B0E0EEE1FCE102C005900D92D6
:10008000A638B107D9F722E0A6E8B2E001C01D9278
:10009000AC38B207E1F70E9490050C940D0E0C9459
:1000A0000000813059F018F0823079F014C087B127
:1000B0008F7B87B987B18F7787B90DC087B180648F
:1000C00087B987B18F7787B906C087B1806487B950
:1000D00087B1806887B987B18F7D87B986B180681D
:1000E00086B986B18F7D86B986B1877F86B986B19C
:1000F000846086B986B1826086B986B1816086B92E
:10010000089590E08830910508F0ACC0FC01E65DF0
:10011000FF4F0C94E40D87B18E7F87B987B18D7F37
:1001200087B987B18B7F87B987B1877F87B987B157
:100130008F7E87B940E060E080E00E943D0192C080
:1001400087B1816087B987B18D7F87B987B18B7F90
:1001500087B987B1877F87B987B18F7E87B940E03C
:1001600061E080E00E943D017DC087B18E7F87B94C
:1001700087B1826087B987B18B7F87B987B1877F65
:1001800087B987B18F7E87B940E062E080E00E9446
:100190003D0168C087B1816087B987B1826087B946
:1001A00087B18B7F87B987B1877F87B987B18F7E0A
:1001B00087B940E063E080E00E943D0153C087B111
:1001C0008E7F87B987B18D7F87B987B1846087B902
:1001D00087B1877F87B987B18F7E87B940E064E0B8
:1001E00080E00E943D013EC087B1816087B987B140
:1001F0008D7F87B987B1846087B987B1877F87B9D9
:1002000087B18F7E87B940E065E080E00E943D01C4
:1002100029C087B18E7F87B987B1826087B987B1DE
:10022000846087B987B1877F87B987B18F7E87B9A7
:1002300040E066E080E00E943D0114C087B181602B
:1002400087B987B1826087B987B1846087B987B180
:10025000877F87B987B18F7E87B940E067E080E00C
:100260000E943D0186B1806486B9349BFECF86B181
:10027000806186B984B195B10895813001F130F083
:100280008230B1F1833009F44CC00895413059F403
:100290002AB381E090E002C0880F991F6A95E2F7C7
:1002A000822B8ABB08952AB381E090E002C0880FB8
:1002B000991F6A95E2F7809582238ABB08954130A1
:1002C00059F427B381E090E002C0880F991F6A9526
:1002D000E2F7822B87BB089527B381E090E002C04C
:1002E000880F991F6A95E2F78095822387BB08954E
:1002F000413059F424B381E090E002C0880F991F87
:100300006A95E2F7822B84BB089524B381E090E0E4
:1003100002C0880F991F6A95E2F78095822384BBFB
:100320000895413059F421B381E090E002C0880F74
:10033000991F6A95E2F7822B81BB089521B381E072
:1003400090E002C0880F991F6A95E2F7809582239A
:1003500081BB0895813001F130F08230B1F18330FA
:1003600009F44CC00895413059F42BB381E090E07A
:1003700002C0880F991F6A95E2F7822B8BBB089504
:100380002BB381E090E002C0880F991F6A95E2F7D5
:10039000809582238BBB0895413059F428B381E0C6
:1003A00090E002C0880F991F6A95E2F7822B88BB04
:1003B000089528B381E090E002C0880F991F6A95E4
:1003C000E2F78095822388BB0895413059F425B324
:1003D00081E090E002C0880F991F6A95E2F7822BB6
:1003E00085BB089525B381E090E002C0880F991F76
:1003F0006A95E2F78095822385BB0895413059F4D0
:1004000022B381E090E002C0880F991F6A95E2F75D
:10041000822B82BB089522B381E090E002C0880F56
:10042000991F6A95E2F78095822382BB08958130F7
:1004300089F028F08230C9F0833011F1089589B332
:1004400090E002C0959587956A95E2F78170FA0170
:100450008083089586B390E002C0959587956A954C
:10046000E2F78170FA018083089583B390E002C0BF
:10047000959587956A95E2F78170FA0180830895D2
:1004800080B390E002C0959587956A95E2F78170F8
:10049000FA01808308950E94030308951F93CF9368
:1004A000DF93D82FC62F192F10650E941203812FBA
:1004B0000E9435038D2F0E945F038C2F0E945F03E3
:1004C0000E942E038FE19EE40197F1F700C0000027
:1004D000DF91CF911F9108950F931F93CF93DF93D7
:1004E000D82F8B01C92FC0650E9412038C2F0E9448
:1004F00035038D2F0E945F030E9420038C2F0E94E2
:100500004A03C8010E946B030E942E038FE19EE400
:100510000197F1F700C00000DF91CF911F910F917B
:100520000895813049F120F0823009F449C00895DE
:10053000613069F028F0623089F06330B1F00895DD
:1005400085B78E7F85BF85B78D7F85BF089585B7B9
:10055000816085BF85B78D7F85BF089585B78E7F04
:1005600085BF85B7826085BF089585B7816085BFE7
:1005700085B7826085BF0895613069F028F06230E8
:1005800089F06330B1F0089585B78B7F85BF85B75B
:10059000877F85BF089585B7846085BF85B7877FCE
:1005A00085BF089585B78B7F85BF85B7886085BF78
:1005B000089585B7846085BF85B7886085BF089535
:1005C000623019F0633029F0089584B78F7B84BFBF
:1005D000089584B7806484BF0895813041F018F095
:1005E000823049F008958BB780648BBF08958BB734
:1005F00080688BBF08958BB780628BBF08958FB7DB
:1006000080688FBF089581B18D7F81B981B18E7F60
:1006100081B98CE080B986B7846086BF86B78E7F4B
:1006200086BF089586B7806286BF86B7806886BF1A
:1006300006B607FEFDCF81B1887F8830E1F70895C7
:1006400086B7806286BF86B7806886BF06B607FE1B
:10065000FDCF81B1887F8031E1F7089586B7806151
:1006600086BF86B7806886BF0895882394F0880F78
:1006700083B983B18E7F83B986B78F7D86BF86B7F6
:10068000806886BF06B607FEFDCF81B1887F8831BE
:10069000E1F70895882394F0880F83B983B18160CE
:1006A00083B986B78F7D86BF86B7806886BF06B65A
:1006B00007FEFDCF81B1887F8034E1F7089583B9CB
:1006C00086B7806886BF06B607FEFDCF81B1887FFA
:1006D0008832E1F70895FC0196B7906896BF06B698
:1006E00007FEFDCF91B1987F9835E1F783B1808304
:1006F000089540E064E081E00E943D0140E065E053
:1007000081E00E943D0140E066E081E00E943D0101
:1007100040E067E081E00E943D0141E064E081E06B
:100720000E94AA0141E065E081E00E94AA0141E047
:1007300066E081E00E94AA0141E067E081E00E945A
:10074000AA0141E061E081E00E943D0141E062E0F8
:1007500081E00E943D0141E063E081E00E943D01B3
:1007600041E061E081E00E94AA0141E062E081E0B5
:100770000E94AA0141E063E081E00E94AA0108957D
:100780006F927F928F929F92AF92BF92CF92DF92A1
:10079000EF92FF920F931F93CF93DF93CDB7DEB706
:1007A0006B970FB6F894DEBF0FBECDBF5C0181E042
:1007B00089838A838B838C8392E09D8393E09E83DD
:1007C0008F83888789878A8784E08B8785E08C87F9
:1007D00086E08D8787E08E878CE0E0E6F0E0DE0142
:1007E0001F9601900D928A95E1F7812C57C0C82C75
:1007F000D12CE4E0F0E0EC0FFD1FEC0DFD1D60805E
:10080000E1E0F0E0EC0FFD1FEC0DFD1D708040E01D
:10081000662D872D0E94AA0110E038C0E12EF12C30
:10082000EBE0F0E0EC0FFD1FEE0DFF1D0081E7E0B7
:10083000F0E0EC0FFD1FEE0DFF1D9080AE01455E58
:100840005F4F602F892D0E9417028B8D81111DC073
:1008500007C0AE01455E5F4F602F892D0E941702D1
:100860008B8D8823B1F3C701880F991FE80EF91EFD
:1008700081E090E08C0F9D1FE80EF91EF701EC0D52
:10088000FD1D8685F50180830DC01F5F143030F299
:1008900041E0662D872D0E94AA018394F2E0F815AD
:1008A00008F0A5CF6B960FB6F894DEBF0FBECDBF94
:1008B000DF91CF911F910F91FF90EF90DF90CF903C
:1008C000BF90AF909F908F907F906F90089541E080
:1008D00063E080E00E94AA018FE99FE00197F1F7B1
:1008E00000C0000040E063E080E00E94AA0108959B
:1008F000CF93C82F482F417064E080E00E94AA0186
:10090000C1FB442740F965E080E00E94AA01C2FBD8
:10091000442740F966E080E00E94AA01C3FB442717
:1009200040F967E080E00E94AA010E946704CF912D
:100930000895CF93C82F40E061E080E00E94AA01B3
:100940008C2F82958F700E9478048C2F0E947804DF
:10095000CF91089541E064E080E00E943D0141E0D4
:1009600065E080E00E943D0141E066E080E00E9499
:100970003D0141E067E080E00E943D0141E061E02F
:1009800080E00E943D0141E062E080E00E943D0184
:1009900041E063E080E00E943D0140E061E080E0F2
:1009A0000E94AA0140E062E080E00E94AA012FEFCD
:1009B00083EF91E0215080409040E1F700C00000BB
:1009C00082E20E94990488E00E94780487EC90E01B
:1009D0000197F1F700C000008CE00E94990487ECB9
:1009E00090E00197F1F700C0000081E00E949904B7
:1009F0008FE39FE10197F1F700C0000086E00E94BD
:100A000099040895CF93C82F41E061E080E00E94EF
:100A1000AA018C2F82958F700E9478048C2F0E94DF
:100A20007804CF9108950F931F93CF938C01FC010D
:100A30008081C0E007C00E940205CF5FF801EC0F83
:100A4000F11D80818111F7CFCF911F910F910895F2
:100A500080EC0E949904089581E00E949904089511
:100A6000CF92DF92EF92FF920F931F938B019C0125
:100A7000672B682B692B61F560E370E080E090E004
:100A80000E94300546C0DC01CB01880F991FAA1FC8
:100A9000BB1F6C017D01CC0CDD1CEE1CFF1CCC0CC3
:100AA000DD1CEE1CFF1CC80ED91EEA1EFB1EC90170
:100AB000B8012AE030E040E050E00E94C20D6C0D29
:100AC0007D1D8E1D9F1D022F132F242F352F04C037
:100AD00061E070E080E090E001151105210531052D
:100AE00091F612C02AE030E040E050E00E94C20DD2
:100AF000E22EF32E042F152F80E3860F0E940205AD
:100B00006E2D7F2D802F912F61307105810591050C
:100B100049F71F910F91FF90EF90DF90CF900895CC
:100B20000E947F060E94B509FDCF8FB58F7B8FBDD8
:100B30008FB580688FBD8FB58E7F8FBD8FB582607A
:100B40008FBD8EB588608EBD8EB580618EBD41E053
:100B500065E083E00E943D010895CF92DF92EF921D
:100B6000FF926B017C019A0140E050E060E970ED7A
:100B700083E090E00E94C20D2150310937BD26BDAF
:100B800066B577B56F5F7F4F80E090E00E94B30C51
:100B9000A70196010E94410D20E030E048EC52E4AC
:100BA0000E94120C20E030E040E85FE30E94A50BB9
:100BB0000E94840C7BBD6ABD8EB581608EBD8EB5F2
:100BC00082608EBD8EB58B7F8EBDFF90EF90DF90E3
:100BD000CF90089585B5806485BD85B5886085BD55
:100BE00085B5806285BD85B58F7E85BD41E067E0B6
:100BF00083E00E943D010895982F80E064E670E054
:100C00000E94AE0D615063BD85B5816085BD85B51F
:100C1000826085BD85B58B7F85BD089585B58E7F46
:100C200085BD85B58D7F85BD85B58B7F85BD0895D7
:100C3000CF92DF92EF92FF92CF93DF9380E00E94FA
:100C400081009C01A4EFB1E00E94EA0D6B017C01E0
:100C50000B2EBAE0F694E794D794C794BA95D1F7DF
:100C6000B02DE6010E942C058CE690E00E94130551
:100C7000C701B601882799270E94300583E40E94A6
:100C80000205C532D10520F084E60E94FC051BC098
:100C9000C232D10520F08BE40E94FC0514C0CE3195
:100CA000D10520F082E30E94FC050DC06B9720F077
:100CB00089E10E94FC0507C041E060E081E00E94FC
:100CC000AA010E940E06DF91CF91FF90EF90DF9076
:100CD000CF90089541E062E082E00E943D0141E052
:100CE00063E082E00E943D0141E064E082E00E9416
:100CF0003D0141E065E082E00E943D0108950E94CF
:100D0000FF020E944B020E946C0B81E00E94510086
:100D10000E9495050E94AA040E94790363E080E086
:100D20000E94910280E00E94ED0281E00E94D20ABE
:100D300088E196E00E94F80A0E94EE0A0E94EA0505
:100D40000E946A0641E060E081E00E943D0141E0CE
:100D500060E081E00E94AA0160E08FEF90E00E94D5
:100D60004E0241E064E081E00E943D010895DF927F
:100D7000EF92FF920F931F93CF93DF9300D000D099
:100D8000CDB7DEB71982BE016F5F7F4F8FEF90E066
:100D90000E946C028981823308F479C089E790E06F
:100DA0000E94900B2FEF87EA91E6215080409040FF
:100DB000E1F700C00000AAC088E990E00E94900B13
:100DC00000E010E0E12CF12C16C0C701880F991F3C
:100DD000EE0CFF1CEE0CFF1CEE0CFF1CE80EF91EC7
:100DE000CE0103960E948A0B8B8180538B83E80E81
:100DF000F11C0F5F1F4F033011053CF385E091E0BC
:100E00000E94900BC701845691098C39910558F1C5
:100E10008CEA90E00E94900B2FEF87EA91E6215038
:100E200080409040E1F700C0000034C0BE016C5F1C
:100E30007F4FC8010E946C028C8190E0E816F90691
:100E400079F483EC90E00E94900B2FEF87EA91E613
:100E5000215080409040E1F700C0000081E012C0C6
:100E60000B5F1F4F02C000E010E0898190E09C0101
:100E7000220F331F220F331F820F931F08171907EA
:100E8000ACF280E0811106C0DD24D39403C0D12CE4
:100E9000E12CF12CDD2009F48FCF898190E09C01B9
:100EA000220F331F220F331F6E2D820F931F0E94BC
:100EB0004E0282EE90E00E94900B00E010E015C020
:100EC000CE0102960E948A0B898190E09C01220F3C
:100ED000331F220F331F820F931F01966A81800FE9
:100EE000911F0E944E020F5F1F4F0430110544F303
:100EF0008CE00E94860B69816F5F69838FEF90E0C1
:100F00000E944E028AEF90E00E94900B0F900F908B
:100F10000F900F90DF91CF911F910F91FF90EF9065
:100F2000DF900895FFCFDF92EF92FF920F931F9310
:100F3000CF93DF9300D000D0CDB7DEB77C01D12CAA
:100F40003FC088E091E00E94900B00E010E00AC0F2
:100F500081E090E08C0F9D1F800F911F0E948A0BF3
:100F60000F5F1F4F043011059CF385E091E00E9454
:100F7000900B80E090E01EC0E1E0F0E0EC0FFD1F80
:100F8000E80FF91F3081F701E80FF91F20813217B0
:100F900081F0D39488E191E00E94900B2FEF87EAD3
:100FA00091E6215080409040E1F700C0000080E0D1
:100FB00005C0019684309105FCF281E081110AC0E0
:100FC00022E02D1508F0BDCF84E391E00E94900B44
:100FD0000E9492070F900F900F900F90DF91CF918A
:100FE0001F910F91FF90EF90DF900895CF93DF93C3
:100FF0001F92CDB7DEB78CE00E94860B80E691E0B1
:101000000E94900BCE0101960E948A0B8981813348
:1010100019F0823351F011C042E350E060E070E01B
:1010200080E291E40E94AD0508C042E350E060E038
:1010300070E080EF90E40E94AD050F90DF91CF91BA
:101040000895CF93DF931F92CDB7DEB78CE00E9457
:10105000860B8BE791E00E94900B8DE891E00E9457
:10106000900BCE0101960E948A0B85E091E00E94D0
:10107000900B8FE991E00E94900B8981823321F1DE
:1010800018F4813339F06DC08333C1F1843309F42E
:101090004FC067C0CE0101960E948A0B85E091E0A7
:1010A0000E94900B8981813319F0823339F059C045
:1010B00041E062E082E00E94AA0153C040E062E0A9
:1010C00082E00E94AA014DC0CE0101960E948A0BC7
:1010D00085E091E00E94900B8981813319F0823381
:1010E00039F03FC041E063E082E00E94AA0139C0CC
:1010F00040E063E082E00E94AA0133C0CE01019685
:101100000E948A0B85E091E00E94900B89818133D7
:1011100019F0823339F025C041E064E082E00E949A
:10112000AA011FC040E064E082E00E94AA0119C049
:10113000CE0101960E948A0B85E091E00E94900BFF
:101140008981813319F0823339F00BC041E065E0C9
:1011500082E00E94AA0105C040E065E082E00E94B2
:10116000AA010F90DF91CF910895CF93DF931F9243
:10117000CDB7DEB78CE00E94860B8CEA91E00E942E
:10118000900BCE0101960E948A0B85E091E00E94AF
:10119000900B8981823361F018F4813331F0EACF0A
:1011A000833349F0843351F0E5CF0E94B706E2CF94
:1011B0000E94F607DFCF0E942108DCCF0F90DF915D
:1011C000CF910895CF93DF9300D000D0CDB7DEB795
:1011D00081E3898382E38A8383E38B8384E38C8343
:1011E000CE0101960E9493070E94B5080F900F90C0
:1011F0000F900F90DF91CF910895CF93DF931F92BF
:10120000CDB7DEB780ED91E00E94900BCE01019644
:101210000E948A0B85E091E00E94900B89818133C6
:1012200019F0823321F0EECF0E942108EBCF0F900E
:10123000DF91CF910895EF92FF920F931F93CF9379
:10124000DF93CDB7DEB727970FB6F894DEBF0FBE9A
:10125000CDBFBE016F5F7F4F8FEF90E00E946C02A9
:10126000898181110EC082EE91E00E94900B2FEFD8
:1012700087EA91E6215080409040E1F700C00000ED
:1012800067C085EF91E00E94900B00E010E0F12C28
:101290000FC0FF0C8F2D880F880FF80ECE01069619
:1012A0000E948A0B8E8180538E83F80E0F5F1F4F32
:1012B0000330110574F385E091E00E94900B00E08B
:1012C00010E00EC0BE01695F7F4FC8010E946C0232
:1012D0008F81F81203C0E02E81E00FC00B5F1F4F1B
:1012E000898190E09C01220F331F220F331F820F50
:1012F000931F0817190734F380E081111EC084E0A2
:1013000092E00E94900B2FEF87EA91E621508040F7
:101310009040E1F700C000001BC08E2D90E00196C8
:1013200062E070E06C0F7D1F600F711F800F911FD6
:101330000E946C020F5F1F4F02C000E010E00430FB
:1013400011055CF3CE0102960E9493070E94FD08EE
:1013500027960FB6F894DEBF0FBECDBFDF91CF91B9
:101360001F910F91FF90EF900895CF93DF931F92FD
:10137000CDB7DEB78CE00E94860B88E192E00E9438
:10138000900B8AE292E00E94900BCE0101960E949F
:101390008A0B85E091E00E94900B8981813319F0DE
:1013A000823359F014C08CE00E94860B89E492E0ED
:1013B0000E94900B0E94E20817C08CE00E94860BEE
:1013C00087E592E00E94900B0E941B090DC084E605
:1013D00092E00E94900B2FEF87EA91E62150804027
:1013E0009040E1F700C000000F90DF91CF91089589
:1013F000CF93DF931F92CDB7DEB719820E942C05E1
:101400008BE791E00E9413050E9428058DE891E08A
:101410000E94130504C0CE0101960E94C003898179
:101420008823C9F30E942C058FE991E00E941305DF
:101430008981823321F118F4813339F06DC083330F
:10144000C1F1843309F44FC067C0198204C0CE01D2
:1014500001960E94C00389818823C9F3813319F062
:10146000823339F059C041E062E082E00E94AA0173
:1014700053C040E062E082E00E94AA014DC01982A0
:1014800004C0CE0101960E94C00389818823C9F35C
:10149000813319F0823339F03FC041E063E082E0EC
:1014A0000E94AA0139C040E063E082E00E94AA01E4
:1014B00033C0198204C0CE0101960E94C003898105
:1014C0008823C9F3813319F0823339F025C041E014
:1014D00064E082E00E94AA011FC040E064E082E074
:1014E0000E94AA0119C0198204C0CE0101960E946F
:1014F000C00389818823C9F3813319F0823339F01D
:101500000BC041E065E082E00E94AA0105C040E016
:1015100065E082E00E94AA010F90DF91CF910895CB
:10152000CF93DF931F92CDB7DEB70E942C051982AF
:1015300086E792E00E94130504C0CE0101960E9446
:10154000C00389818823C9F3803321F0813311F4EA
:101550000E94F8090F90DF91CF9108951F920F928A
:101560000FB60F9211242F933F934F935F936F9376
:101570007F938F939F93AF93BF93EF93FF930E94BB
:10158000900AFF91EF91BF91AF919F918F917F91C1
:101590006F915F914F913F912F910F900FBE0F90E0
:1015A0001F901895882319F0813061F0089583B752
:1015B0008F7B83BF83B7877F83BF12BE89B781606C
:1015C00089BF089583B78F7B83BF83B7886083BF4C
:1015D00089EF8CBF89B7826089BF089583B7816026
:1015E00083BF83B7826083BF83B78B7F83BF089538
:1015F00090938B0280938A0208951F920F920FB6E8
:101600000F9211242F933F934F935F936F937F9388
:101610008F939F93AF93BF93EF93FF938091880233
:1016200090918902019690938902809388028A3F63
:10163000910551F4109289021092880212BEE09135
:101640008A02F0918B020995FF91EF91BF91AF91C2
:101650009F918F917F916F915F914F913F912F91CA
:101660000F900FBE0F901F9018951F920F920FB6FC
:101670000F9211242F933F934F935F936F937F9318
:101680008F939F93AF93BF93EF93FF9380918602C5
:1016900090918702019690938702809386028A3FF9
:1016A000910549F41092870210928602E0918A0215
:1016B000F0918B020995FF91EF91BF91AF919F91AE
:1016C0008F917F916F915F914F913F912F910F90EB
:1016D0000FBE0F901F90189587E689B98BB18D7F4B
:1016E0008BB98AB18F778AB98AB18F7B8AB98AB16F
:1016F0008F7D8AB986E880BD8AB18B7F8AB98AB12D
:1017000080618AB98AB188608AB908955D9BFECFED
:101710008CB908955F9BFECF2CB1FC012083089506
:101720000F931F93CF938C01FC018081C0E007C011
:101730000E94860BCF5FF801EC0FF11D80818111B3
:10174000F7CFCF911F910F9108955058BB27AA272B
:101750000E94BD0B0C94070D0E94F90C38F00E94FA
:10176000000D20F039F49F3F19F426F40C94F60C88
:101770000EF4E095E7FB0C94F00CE92F0E94180D95
:1017800058F3BA17620773078407950720F079F4B6
:10179000A6F50C943A0D0EF4E0950B2EBA2FA02D61
:1017A0000B01B90190010C01CA01A0011124FF270E
:1017B000591B99F0593F50F4503E68F11A16F04009
:1017C000A22F232F342F4427585FF3CF4695379508
:1017D0002795A795F0405395C9F77EF41F16BA0BCD
:1017E000620B730B840BBAF09150A1F0FF0FBB1F7B
:1017F000661F771F881FC2F70EC0BA0F621F731FC4
:10180000841F48F4879577956795B795F7959E3F20
:1018100008F0B0CF9395880F08F09927EE0F9795B1
:10182000879508950E94260C0C94070D0E94000DC8
:1018300058F00E94F90C40F029F45F3F29F00C9415
:10184000F00C51110C943B0D0C94F60C0E94180DE9
:1018500068F39923B1F3552391F3951B550BBB27DF
:10186000AA2762177307840738F09F5F5F4F220F24
:10187000331F441FAA1FA9F335D00E2E3AF0E0E81B
:1018800032D091505040E695001CCAF72BD0FE2F65
:1018900029D0660F771F881FBB1F261737074807F9
:1018A000AB07B0E809F0BB0B802DBF01FF279358B1
:1018B0005F4F3AF09E3F510578F00C94F00C0C9479
:1018C0003B0D5F3FE4F3983ED4F38695779567959B
:1018D000B795F7959F5FC9F7880F911D96958795E6
:1018E00097F90895E1E0660F771F881FBB1F621705
:1018F00073078407BA0720F0621B730B840BBA0BC3
:10190000EE1F88F7E09508950E94200D88F09F57FC
:1019100098F0B92F9927B751B0F0E1F0660F771F13
:10192000881F991F1AF0BA95C9F714C0B13091F009
:101930000E943A0DB1E008950C943A0D672F782F6C
:101940008827B85F39F0B93FCCF3869577956795CE
:10195000B395D9F73EF490958095709561957F4F3A
:101960008F4F9F4F0895E89409C097FB3EF49095E0
:101970008095709561957F4F8F4F9F4F9923A9F068
:10198000F92F96E9BB279395F695879577956795F7
:10199000B795F111F8CFFAF4BB0F11F460FF1BC03B
:1019A0006F5F7F4F8F4F9F4F16C0882311F096E9CE
:1019B00011C0772321F09EE8872F762F05C066237C
:1019C00071F096E8862F70E060E02AF09A95660F35
:1019D000771F881FDAF7880F9695879597F90895EE
:1019E00097F99F6780E870E060E008959FEF80ECD2
:1019F000089500240A941616170618060906089575
:101A000000240A9412161306140605060895092EDA
:101A10000394000C11F4882352F0BB0F40F4BF2B49
:101A200011F460FF04C06F5F7F4F8F4F9F4F089589
:101A300057FD9058440F551F59F05F3F71F047957F
:101A4000880F97FB991F61F09F3F79F08795089564
:101A5000121613061406551FF2CF4695F1DF08C083
:101A6000161617061806991FF1CF869571056105A0
:101A700008940895E894BB2766277727CB0197F948
:101A800008950E94540D0C94070D0E94F90C38F033
:101A90000E94000D20F0952311F00C94F00C0C9492
:101AA000F60C11240C943B0D0E94180D70F3959FB9
:101AB000C1F3950F50E0551F629FF001729FBB2745
:101AC000F00DB11D639FAA27F00DB11DAA1F649FE1
:101AD0006627B00DA11D661F829F2227B00DA11D94
:101AE000621F739FB00DA11D621F839FA00D611D1A
:101AF000221F749F3327A00D611D231F849F600D3B
:101B0000211D822F762F6A2F11249F5750409AF063
:101B1000F1F088234AF0EE0FFF1FBB1F661F771FEF
:101B2000881F91505040A9F79E3F510580F00C94BA
:101B3000F00C0C943B0D5F3FE4F3983ED4F3869594
:101B400077956795B795F795E7959F5FC1F7FE2B5A
:101B5000880F911D9695879597F9089597FB072E05
:101B600016F4009407D077FD09D00E94F90D07FC08
:101B700005D03EF4909581959F4F0895709561959D
:101B80007F4F0895A1E21A2EAA1BBB1BFD010DC0B9
:101B9000AA1FBB1FEE1FFF1FA217B307E407F5071D
:101BA00020F0A21BB30BE40BF50B661F771F881FF9
:101BB000991F1A9469F760957095809590959B018F
:101BC000AC01BD01CF010895EE0FFF1F0590F49108
:101BD000E02D0994A29FB001B39FC001A39F700D97
:101BE000811D1124911DB29F700D811D1124911D25
:101BF0000895AA1BBB1B51E107C0AA1FBB1FA61754
:101C0000B70710F0A61BB70B881F991F5A95A9F7A5
:0E1C100080959095BC01CD010895F894FFCF0A
:101C1E003132333435363738392A302354656D70C6
:101C2E00657261747572653A004D6178206E756DDE
:101C3E00626572206F6620757365727320726561BE
:101C4E0063686564210D0A00456E746572206E65C9
:101C5E007720757365722049443A2000557365727A
:101C6E002049442069736E27742076616C69642163
:101C7E000D0A0054686973207573657220494420FB
:101C8E00616C7265616479206578697374732E0D69
:101C9E000A00536574206E65772075736572207027
:101CAE00617373776F72643A2000557365722061A9
:101CBE0064646564210D0A00656E7465722070613E
:101CCE007373776F72643A0057726F6E672070612C
:101CDE007373776F72642C207472792061676169F7
:101CEE006E0D0A0057726F6E6720696E70757420E4
:101CFE006C696D697420726561636865642E20532A
:101D0E00797374656D206C6F636B65642E0D0A00BC
:101D1E0031296F70656E20646F6F72203229636C8B
:101D2E006F736520646F6F720D0A0031296C616DDF
:101D3E0070312032296C616D70320D0A0033296CBE
:101D4E00616D70332034296C616D70340D0A003171
:101D5E00296F6E2032296F66660D0A003129616483
:101D6E00642075736572203229646F6F7220332977
:101D7E006C6967687473203429657869740D0A007C
:101D8E0031296C6967687473203229657869740D1E
:101D9E000A0041646420757365727320466972731C
:101DAE0074210D0A00656E7465722075736572205C
:101DBE0049443A0075736572206964206E6F742011
:101DCE00666F756E640D0A004D61696E204C6F670B
:101DDE00696E20506167650D0A00312941646D6995
:101DEE006E206C6F67696E202020322955736572E4
:101DFE00206C6F67696E0D0A0041646D696E206C10
:101E0E006F67696E0D0A0075736572206C6F676976
:101E1E006E0D0A00696E76616C69642063686F6985
:101E2E006365210D0A0031296C696768747320306F
:061E3E00296578697400BB
:00000001FF
